{"abi":[{"type":"constructor","inputs":[],"stateMutability":"nonpayable"},{"type":"function","name":"MATURITY_PRICE","inputs":[],"outputs":[{"name":"","type":"uint256","internalType":"uint256"}],"stateMutability":"view"},{"type":"function","name":"MATURITY_TARGET","inputs":[],"outputs":[{"name":"","type":"uint256","internalType":"uint256"}],"stateMutability":"view"},{"type":"function","name":"START_PRICE","inputs":[],"outputs":[{"name":"","type":"uint256","internalType":"uint256"}],"stateMutability":"view"},{"type":"function","name":"buyTokens","inputs":[{"name":"coinAddress","type":"address","internalType":"address"},{"name":"amountToBuy","type":"uint256","internalType":"uint256"}],"outputs":[],"stateMutability":"payable"},{"type":"function","name":"coins","inputs":[{"name":"","type":"address","internalType":"address"}],"outputs":[{"name":"creator","type":"address","internalType":"address"},{"name":"tokensSold","type":"uint256","internalType":"uint256"},{"name":"isMatured","type":"bool","internalType":"bool"}],"stateMutability":"view"},{"type":"function","name":"createCoin","inputs":[{"name":"name","type":"string","internalType":"string"},{"name":"symbol","type":"string","internalType":"string"},{"name":"initialSupply","type":"uint256","internalType":"uint256"}],"outputs":[{"name":"","type":"address","internalType":"address"}],"stateMutability":"payable"},{"type":"function","name":"dev","inputs":[],"outputs":[{"name":"","type":"address","internalType":"address"}],"stateMutability":"view"},{"type":"function","name":"getPriceAtSupply","inputs":[{"name":"supply","type":"uint256","internalType":"uint256"}],"outputs":[{"name":"","type":"uint256","internalType":"uint256"}],"stateMutability":"pure"},{"type":"function","name":"hasClaimedDiscount","inputs":[{"name":"","type":"address","internalType":"address"},{"name":"","type":"address","internalType":"address"}],"outputs":[{"name":"","type":"bool","internalType":"bool"}],"stateMutability":"view"},{"type":"function","name":"isEarlyAdopter","inputs":[{"name":"","type":"address","internalType":"address"},{"name":"","type":"address","internalType":"address"}],"outputs":[{"name":"","type":"bool","internalType":"bool"}],"stateMutability":"view"},{"type":"function","name":"listingFee","inputs":[],"outputs":[{"name":"","type":"uint256","internalType":"uint256"}],"stateMutability":"view"},{"type":"function","name":"owner","inputs":[],"outputs":[{"name":"","type":"address","internalType":"address"}],"stateMutability":"view"},{"type":"function","name":"renounceOwnership","inputs":[],"outputs":[],"stateMutability":"nonpayable"},{"type":"function","name":"transferOwnership","inputs":[{"name":"newOwner","type":"address","internalType":"address"}],"outputs":[],"stateMutability":"nonpayable"},{"type":"event","name":"CoinCreated","inputs":[{"name":"tokenAddress","type":"address","indexed":true,"internalType":"address"},{"name":"creator","type":"address","indexed":true,"internalType":"address"},{"name":"name","type":"string","indexed":false,"internalType":"string"},{"name":"symbol","type":"string","indexed":false,"internalType":"string"}],"anonymous":false},{"type":"event","name":"CoinMatured","inputs":[{"name":"coin","type":"address","indexed":true,"internalType":"address"}],"anonymous":false},{"type":"event","name":"CoinPurchased","inputs":[{"name":"coin","type":"address","indexed":true,"internalType":"address"},{"name":"buyer","type":"address","indexed":true,"internalType":"address"},{"name":"amount","type":"uint256","indexed":false,"internalType":"uint256"},{"name":"cost","type":"uint256","indexed":false,"internalType":"uint256"}],"anonymous":false},{"type":"event","name":"OwnershipTransferred","inputs":[{"name":"previousOwner","type":"address","indexed":true,"internalType":"address"},{"name":"newOwner","type":"address","indexed":true,"internalType":"address"}],"anonymous":false},{"type":"error","name":"OwnableInvalidOwner","inputs":[{"name":"owner","type":"address","internalType":"address"}]},{"type":"error","name":"OwnableUnauthorizedAccount","inputs":[{"name":"account","type":"address","internalType":"address"}]},{"type":"error","name":"ReentrancyGuardReentrantCall","inputs":[]}],"bytecode":{"object":"0x6080604052662386f26fc1000060015534801561001a575f5ffd5b50335f73ffffffffffffffffffffffffffffffffffffffff168173ffffffffffffffffffffffffffffffffffffffff160361008c575f6040517f1e4fbdf70000000000000000000000000000000000000000000000000000000081526004016100839190610237565b60405180910390fd5b61009b8161010560201b60201c565b5060016100ba6100af6101c660201b60201c565b6101ef60201b60201c565b5f01819055503360025f6101000a81548173ffffffffffffffffffffffffffffffffffffffff021916908373ffffffffffffffffffffffffffffffffffffffff160217905550610250565b5f5f5f9054906101000a900473ffffffffffffffffffffffffffffffffffffffff169050815f5f6101000a81548173ffffffffffffffffffffffffffffffffffffffff021916908373ffffffffffffffffffffffffffffffffffffffff1602179055508173ffffffffffffffffffffffffffffffffffffffff168173ffffffffffffffffffffffffffffffffffffffff167f8be0079c531659141344cd1fd0a4f28419497f9722a3daafe3b4186f6b6457e060405160405180910390a35050565b5f7f9b779b17422d0df92223018b32b4d1fa46e071723d6817e2486d003becc55f005f1b905090565b5f819050919050565b5f73ffffffffffffffffffffffffffffffffffffffff82169050919050565b5f610221826101f8565b9050919050565b61023181610217565b82525050565b5f60208201905061024a5f830184610228565b92915050565b6134418061025d5f395ff3fe6080604052600436106100dc575f3560e01c8063715018a61161007e57806391cca3db1161005857806391cca3db146102a0578063c1f1ac31146102ca578063d39233e0146102f4578063f2fde38b14610330576100dc565b8063715018a6146102225780637d0f7a88146102385780638da5cb5b14610276576100dc565b80632931b63d116100ba5780632931b63d146101625780633609ac8f146101925780636a1b7ecc146101bc5780636e052bd6146101e6576100dc565b80630752881a146100e05780630b6f88b7146100fc57806321ed6be914610138575b5f5ffd5b6100fa60048036038101906100f591906111bb565b610358565b005b348015610107575f5ffd5b50610122600480360381019061011d91906111f9565b610a43565b60405161012f9190611251565b60405180910390f35b348015610143575f5ffd5b5061014c610a6d565b6040516101599190611279565b60405180910390f35b61017c600480360381019061017791906113ce565b610a73565b6040516101899190611465565b60405180910390f35b34801561019d575f5ffd5b506101a6610d11565b6040516101b39190611279565b60405180910390f35b3480156101c7575f5ffd5b506101d0610d1d565b6040516101dd9190611279565b60405180910390f35b3480156101f1575f5ffd5b5061020c600480360381019061020791906111f9565b610d23565b6040516102199190611251565b60405180910390f35b34801561022d575f5ffd5b50610236610d4d565b005b348015610243575f5ffd5b5061025e6004803603810190610259919061147e565b610d60565b60405161026d939291906114a9565b60405180910390f35b348015610281575f5ffd5b5061028a610db1565b6040516102979190611465565b60405180910390f35b3480156102ab575f5ffd5b506102b4610dd8565b6040516102c19190611465565b60405180910390f35b3480156102d5575f5ffd5b506102de610dfd565b6040516102eb9190611279565b60405180910390f35b3480156102ff575f5ffd5b5061031a600480360381019061031591906114de565b610e09565b6040516103279190611279565b60405180910390f35b34801561033b575f5ffd5b506103566004803603810190610351919061147e565b610e72565b005b610360610ef6565b5f60035f8473ffffffffffffffffffffffffffffffffffffffff1673ffffffffffffffffffffffffffffffffffffffff1681526020019081526020015f2090505f73ffffffffffffffffffffffffffffffffffffffff16815f015f9054906101000a900473ffffffffffffffffffffffffffffffffffffffff1673ffffffffffffffffffffffffffffffffffffffff1603610430576040517f08c379a000000000000000000000000000000000000000000000000000000000815260040161042790611563565b60405180910390fd5b5f8211610472576040517f08c379a0000000000000000000000000000000000000000000000000000000008152600401610469906115cb565b60405180910390fd5b5f5f9050816002015f9054906101000a900460ff16610652576103e883836001015461049e9190611616565b11156104df576040517f08c379a00000000000000000000000000000000000000000000000000000000081526004016104d690611693565b60405180910390fd5b600160045f8673ffffffffffffffffffffffffffffffffffffffff1673ffffffffffffffffffffffffffffffffffffffff1681526020019081526020015f205f3373ffffffffffffffffffffffffffffffffffffffff1673ffffffffffffffffffffffffffffffffffffffff1681526020019081526020015f205f6101000a81548160ff0219169083151502179055505f61057d8360010154610e09565b90505f6105988585600101546105939190611616565b610e09565b90505f600282846105a99190611616565b6105b391906116de565b905085816105c1919061170e565b935085856001015f8282546105d69190611616565b925050819055506103e885600101540361064a576001856002015f6101000a81548160ff0219169083151502179055508673ffffffffffffffffffffffffffffffffffffffff167f7ffdd5028cae00204b5a0236527a33b823df75119897350dc635705adf5a1b6a60405160405180910390a25b50505061083a565b5f6729a2241af62c0000905060045f8673ffffffffffffffffffffffffffffffffffffffff1673ffffffffffffffffffffffffffffffffffffffff1681526020019081526020015f205f3373ffffffffffffffffffffffffffffffffffffffff1673ffffffffffffffffffffffffffffffffffffffff1681526020019081526020015f205f9054906101000a900460ff168015610771575060055f8673ffffffffffffffffffffffffffffffffffffffff1673ffffffffffffffffffffffffffffffffffffffff1681526020019081526020015f205f3373ffffffffffffffffffffffffffffffffffffffff1673ffffffffffffffffffffffffffffffffffffffff1681526020019081526020015f205f9054906101000a900460ff16155b1561082a576064605a6729a2241af62c000061078d919061170e565b61079791906116de565b9050600160055f8773ffffffffffffffffffffffffffffffffffffffff1673ffffffffffffffffffffffffffffffffffffffff1681526020019081526020015f205f3373ffffffffffffffffffffffffffffffffffffffff1673ffffffffffffffffffffffffffffffffffffffff1681526020019081526020015f205f6101000a81548160ff0219169083151502179055505b8381610836919061170e565b9150505b8034101561087d576040517f08c379a000000000000000000000000000000000000000000000000000000000815260040161087490611799565b60405180910390fd5b5f670de0b6b3a764000084610892919061170e565b90508473ffffffffffffffffffffffffffffffffffffffff1663a9059cbb33836040518363ffffffff1660e01b81526004016108cf9291906117b7565b6020604051808303815f875af11580156108eb573d5f5f3e3d5ffd5b505050506040513d601f19601f8201168201806040525081019061090f9190611808565b50813411156109cd575f3373ffffffffffffffffffffffffffffffffffffffff16833461093c9190611833565b60405161094890611893565b5f6040518083038185875af1925050503d805f8114610982576040519150601f19603f3d011682016040523d82523d5f602084013e610987565b606091505b50509050806109cb576040517f08c379a00000000000000000000000000000000000000000000000000000000081526004016109c2906118f1565b60405180910390fd5b505b3373ffffffffffffffffffffffffffffffffffffffff168573ffffffffffffffffffffffffffffffffffffffff167f6848bc61bbb0239cb14224d7b58d75401d0377692fb9ae9967f99d6d77a391f68685604051610a2c92919061190f565b60405180910390a3505050610a3f610f18565b5050565b6005602052815f5260405f20602052805f5260405f205f915091509054906101000a900460ff1681565b6103e881565b5f600154341015610ab9576040517f08c379a0000000000000000000000000000000000000000000000000000000008152600401610ab090611980565b60405180910390fd5b5f84848430604051610aca90611110565b610ad794939291906119ee565b604051809103905ff080158015610af0573d5f5f3e3d5ffd5b50905060405180606001604052803373ffffffffffffffffffffffffffffffffffffffff1681526020015f81526020015f151581525060035f8373ffffffffffffffffffffffffffffffffffffffff1673ffffffffffffffffffffffffffffffffffffffff1681526020019081526020015f205f820151815f015f6101000a81548173ffffffffffffffffffffffffffffffffffffffff021916908373ffffffffffffffffffffffffffffffffffffffff160217905550602082015181600101556040820151816002015f6101000a81548160ff0219169083151502179055509050505f60025f9054906101000a900473ffffffffffffffffffffffffffffffffffffffff1673ffffffffffffffffffffffffffffffffffffffff16600154604051610c1b90611893565b5f6040518083038185875af1925050503d805f8114610c55576040519150601f19603f3d011682016040523d82523d5f602084013e610c5a565b606091505b5050905080610c9e576040517f08c379a0000000000000000000000000000000000000000000000000000000008152600401610c9590611a89565b60405180910390fd5b3373ffffffffffffffffffffffffffffffffffffffff168273ffffffffffffffffffffffffffffffffffffffff167ff6aa4fbc518b8a449a467b9b6d16c64b038ac738e56f47bb2cb22379320240338888604051610cfd929190611aa7565b60405180910390a381925050509392505050565b67016345785d8a000081565b60015481565b6004602052815f5260405f20602052805f5260405f205f915091509054906101000a900460ff1681565b610d55610f32565b610d5e5f610fb9565b565b6003602052805f5260405f205f91509050805f015f9054906101000a900473ffffffffffffffffffffffffffffffffffffffff1690806001015490806002015f9054906101000a900460ff16905083565b5f5f5f9054906101000a900473ffffffffffffffffffffffffffffffffffffffff16905090565b60025f9054906101000a900473ffffffffffffffffffffffffffffffffffffffff1681565b6729a2241af62c000081565b5f6103e88210610e23576729a2241af62c00009050610e6d565b6103e88267016345785d8a00006729a2241af62c0000610e439190611833565b610e4d919061170e565b610e5791906116de565b67016345785d8a0000610e6a9190611616565b90505b919050565b610e7a610f32565b5f73ffffffffffffffffffffffffffffffffffffffff168173ffffffffffffffffffffffffffffffffffffffff1603610eea575f6040517f1e4fbdf7000000000000000000000000000000000000000000000000000000008152600401610ee19190611465565b60405180910390fd5b610ef381610fb9565b50565b610efe61107a565b6002610f10610f0b6110bb565b6110e4565b5f0181905550565b6001610f2a610f256110bb565b6110e4565b5f0181905550565b610f3a6110ed565b73ffffffffffffffffffffffffffffffffffffffff16610f58610db1565b73ffffffffffffffffffffffffffffffffffffffff1614610fb757610f7b6110ed565b6040517f118cdaa7000000000000000000000000000000000000000000000000000000008152600401610fae9190611465565b60405180910390fd5b565b5f5f5f9054906101000a900473ffffffffffffffffffffffffffffffffffffffff169050815f5f6101000a81548173ffffffffffffffffffffffffffffffffffffffff021916908373ffffffffffffffffffffffffffffffffffffffff1602179055508173ffffffffffffffffffffffffffffffffffffffff168173ffffffffffffffffffffffffffffffffffffffff167f8be0079c531659141344cd1fd0a4f28419497f9722a3daafe3b4186f6b6457e060405160405180910390a35050565b6110826110f4565b156110b9576040517f3ee5aeb500000000000000000000000000000000000000000000000000000000815260040160405180910390fd5b565b5f7f9b779b17422d0df92223018b32b4d1fa46e071723d6817e2486d003becc55f005f1b905090565b5f819050919050565b5f33905090565b5f60026111076111026110bb565b6110e4565b5f015414905090565b61192f80611add83390190565b5f604051905090565b5f5ffd5b5f5ffd5b5f73ffffffffffffffffffffffffffffffffffffffff82169050919050565b5f6111578261112e565b9050919050565b6111678161114d565b8114611171575f5ffd5b50565b5f813590506111828161115e565b92915050565b5f819050919050565b61119a81611188565b81146111a4575f5ffd5b50565b5f813590506111b581611191565b92915050565b5f5f604083850312156111d1576111d0611126565b5b5f6111de85828601611174565b92505060206111ef858286016111a7565b9150509250929050565b5f5f6040838503121561120f5761120e611126565b5b5f61121c85828601611174565b925050602061122d85828601611174565b9150509250929050565b5f8115159050919050565b61124b81611237565b82525050565b5f6020820190506112645f830184611242565b92915050565b61127381611188565b82525050565b5f60208201905061128c5f83018461126a565b92915050565b5f5ffd5b5f5ffd5b5f601f19601f8301169050919050565b7f4e487b71000000000000000000000000000000000000000000000000000000005f52604160045260245ffd5b6112e08261129a565b810181811067ffffffffffffffff821117156112ff576112fe6112aa565b5b80604052505050565b5f61131161111d565b905061131d82826112d7565b919050565b5f67ffffffffffffffff82111561133c5761133b6112aa565b5b6113458261129a565b9050602081019050919050565b828183375f83830152505050565b5f61137261136d84611322565b611308565b90508281526020810184848401111561138e5761138d611296565b5b611399848285611352565b509392505050565b5f82601f8301126113b5576113b4611292565b5b81356113c5848260208601611360565b91505092915050565b5f5f5f606084860312156113e5576113e4611126565b5b5f84013567ffffffffffffffff8111156114025761140161112a565b5b61140e868287016113a1565b935050602084013567ffffffffffffffff81111561142f5761142e61112a565b5b61143b868287016113a1565b925050604061144c868287016111a7565b9150509250925092565b61145f8161114d565b82525050565b5f6020820190506114785f830184611456565b92915050565b5f6020828403121561149357611492611126565b5b5f6114a084828501611174565b91505092915050565b5f6060820190506114bc5f830186611456565b6114c9602083018561126a565b6114d66040830184611242565b949350505050565b5f602082840312156114f3576114f2611126565b5b5f611500848285016111a7565b91505092915050565b5f82825260208201905092915050565b7f436f696e20646f6573206e6f74206578697374000000000000000000000000005f82015250565b5f61154d601383611509565b915061155882611519565b602082019050919050565b5f6020820190508181035f83015261157a81611541565b9050919050565b7f4d75737420627579206174206c65617374203120746f6b656e000000000000005f82015250565b5f6115b5601983611509565b91506115c082611581565b602082019050919050565b5f6020820190508181035f8301526115e2816115a9565b9050919050565b7f4e487b71000000000000000000000000000000000000000000000000000000005f52601160045260245ffd5b5f61162082611188565b915061162b83611188565b9250828201905080821115611643576116426115e9565b5b92915050565b7f416d6f756e742065786365656473206d617475726974792074617267657400005f82015250565b5f61167d601e83611509565b915061168882611649565b602082019050919050565b5f6020820190508181035f8301526116aa81611671565b9050919050565b7f4e487b71000000000000000000000000000000000000000000000000000000005f52601260045260245ffd5b5f6116e882611188565b91506116f383611188565b925082611703576117026116b1565b5b828204905092915050565b5f61171882611188565b915061172383611188565b925082820261173181611188565b91508282048414831517611748576117476115e9565b5b5092915050565b7f4e6f7420656e6f756768204554482073656e74000000000000000000000000005f82015250565b5f611783601383611509565b915061178e8261174f565b602082019050919050565b5f6020820190508181035f8301526117b081611777565b9050919050565b5f6040820190506117ca5f830185611456565b6117d7602083018461126a565b9392505050565b6117e781611237565b81146117f1575f5ffd5b50565b5f81519050611802816117de565b92915050565b5f6020828403121561181d5761181c611126565b5b5f61182a848285016117f4565b91505092915050565b5f61183d82611188565b915061184883611188565b92508282039050818111156118605761185f6115e9565b5b92915050565b5f81905092915050565b50565b5f61187e5f83611866565b915061188982611870565b5f82019050919050565b5f61189d82611873565b9150819050919050565b7f526566756e64206661696c6564000000000000000000000000000000000000005f82015250565b5f6118db600d83611509565b91506118e6826118a7565b602082019050919050565b5f6020820190508181035f830152611908816118cf565b9050919050565b5f6040820190506119225f83018561126a565b61192f602083018461126a565b9392505050565b7f496e73756666696369656e7420666565000000000000000000000000000000005f82015250565b5f61196a601083611509565b915061197582611936565b602082019050919050565b5f6020820190508181035f8301526119978161195e565b9050919050565b5f81519050919050565b8281835e5f83830152505050565b5f6119c08261199e565b6119ca8185611509565b93506119da8185602086016119a8565b6119e38161129a565b840191505092915050565b5f6080820190508181035f830152611a0681876119b6565b90508181036020830152611a1a81866119b6565b9050611a29604083018561126a565b611a366060830184611456565b95945050505050565b7f466565207472616e73666572206661696c6564000000000000000000000000005f82015250565b5f611a73601383611509565b9150611a7e82611a3f565b602082019050919050565b5f6020820190508181035f830152611aa081611a67565b9050919050565b5f6040820190508181035f830152611abf81856119b6565b90508181036020830152611ad381846119b6565b9050939250505056fe608060405234801561000f575f5ffd5b5060405161192f38038061192f83398181016040528101906100319190610512565b8383816003908161004291906107c6565b50806004908161005291906107c6565b5050506100898161006761009260201b60201c565b600a61007391906109fd565b8461007e9190610a47565b61009a60201b60201c565b50505050610b40565b5f6012905090565b5f73ffffffffffffffffffffffffffffffffffffffff168273ffffffffffffffffffffffffffffffffffffffff160361010a575f6040517fec442f050000000000000000000000000000000000000000000000000000000081526004016101019190610a97565b60405180910390fd5b61011b5f838361011f60201b60201c565b5050565b5f73ffffffffffffffffffffffffffffffffffffffff168373ffffffffffffffffffffffffffffffffffffffff160361016f578060025f8282546101639190610ab0565b9250508190555061023d565b5f5f5f8573ffffffffffffffffffffffffffffffffffffffff1673ffffffffffffffffffffffffffffffffffffffff1681526020019081526020015f20549050818110156101f8578381836040517fe450d38c0000000000000000000000000000000000000000000000000000000081526004016101ef93929190610af2565b60405180910390fd5b8181035f5f8673ffffffffffffffffffffffffffffffffffffffff1673ffffffffffffffffffffffffffffffffffffffff1681526020019081526020015f2081905550505b5f73ffffffffffffffffffffffffffffffffffffffff168273ffffffffffffffffffffffffffffffffffffffff1603610284578060025f82825403925050819055506102ce565b805f5f8473ffffffffffffffffffffffffffffffffffffffff1673ffffffffffffffffffffffffffffffffffffffff1681526020019081526020015f205f82825401925050819055505b8173ffffffffffffffffffffffffffffffffffffffff168373ffffffffffffffffffffffffffffffffffffffff167fddf252ad1be2c89b69c2b068fc378daa952ba7f163c4a11628f55a4df523b3ef8360405161032b9190610b27565b60405180910390a3505050565b5f604051905090565b5f5ffd5b5f5ffd5b5f5ffd5b5f5ffd5b5f601f19601f8301169050919050565b7f4e487b71000000000000000000000000000000000000000000000000000000005f52604160045260245ffd5b61039782610351565b810181811067ffffffffffffffff821117156103b6576103b5610361565b5b80604052505050565b5f6103c8610338565b90506103d4828261038e565b919050565b5f67ffffffffffffffff8211156103f3576103f2610361565b5b6103fc82610351565b9050602081019050919050565b8281835e5f83830152505050565b5f610429610424846103d9565b6103bf565b9050828152602081018484840111156104455761044461034d565b5b610450848285610409565b509392505050565b5f82601f83011261046c5761046b610349565b5b815161047c848260208601610417565b91505092915050565b5f819050919050565b61049781610485565b81146104a1575f5ffd5b50565b5f815190506104b28161048e565b92915050565b5f73ffffffffffffffffffffffffffffffffffffffff82169050919050565b5f6104e1826104b8565b9050919050565b6104f1816104d7565b81146104fb575f5ffd5b50565b5f8151905061050c816104e8565b92915050565b5f5f5f5f6080858703121561052a57610529610341565b5b5f85015167ffffffffffffffff81111561054757610546610345565b5b61055387828801610458565b945050602085015167ffffffffffffffff81111561057457610573610345565b5b61058087828801610458565b9350506040610591878288016104a4565b92505060606105a2878288016104fe565b91505092959194509250565b5f81519050919050565b7f4e487b71000000000000000000000000000000000000000000000000000000005f52602260045260245ffd5b5f60028204905060018216806105fc57607f821691505b60208210810361060f5761060e6105b8565b5b50919050565b5f819050815f5260205f209050919050565b5f6020601f8301049050919050565b5f82821b905092915050565b5f600883026106717fffffffffffffffffffffffffffffffffffffffffffffffffffffffffffffffff82610636565b61067b8683610636565b95508019841693508086168417925050509392505050565b5f819050919050565b5f6106b66106b16106ac84610485565b610693565b610485565b9050919050565b5f819050919050565b6106cf8361069c565b6106e36106db826106bd565b848454610642565b825550505050565b5f5f905090565b6106fa6106eb565b6107058184846106c6565b505050565b5f5b8281101561072b576107205f8284016106f2565b60018101905061070c565b505050565b601f82111561077e578282111561077d5761074a81610615565b61075383610627565b61075c85610627565b6020861015610769575f90505b8083016107788284038261070a565b505050505b5b505050565b5f82821c905092915050565b5f61079e5f1984600802610783565b1980831691505092915050565b5f6107b6838361078f565b9150826002028217905092915050565b6107cf826105ae565b67ffffffffffffffff8111156107e8576107e7610361565b5b6107f282546105e5565b6107fd828285610730565b5f60209050601f83116001811461082e575f841561081c578287015190505b61082685826107ab565b86555061088d565b601f19841661083c86610615565b5f5b828110156108635784890151825560018201915060208501945060208101905061083e565b86831015610880578489015161087c601f89168261078f565b8355505b6001600288020188555050505b505050505050565b7f4e487b71000000000000000000000000000000000000000000000000000000005f52601160045260245ffd5b5f8160011c9050919050565b5f5f8291508390505b6001851115610917578086048111156108f3576108f2610895565b5b60018516156109025780820291505b8081029050610910856108c2565b94506108d7565b94509492505050565b5f8261092f57600190506109ea565b8161093c575f90506109ea565b8160018114610952576002811461095c5761098b565b60019150506109ea565b60ff84111561096e5761096d610895565b5b8360020a91508482111561098557610984610895565b5b506109ea565b5060208310610133831016604e8410600b84101617156109c05782820a9050838111156109bb576109ba610895565b5b6109ea565b6109cd84848460016108ce565b925090508184048111156109e4576109e3610895565b5b81810290505b9392505050565b5f60ff82169050919050565b5f610a0782610485565b9150610a12836109f1565b9250610a3f7fffffffffffffffffffffffffffffffffffffffffffffffffffffffffffffffff8484610920565b905092915050565b5f610a5182610485565b9150610a5c83610485565b9250828202610a6a81610485565b91508282048414831517610a8157610a80610895565b5b5092915050565b610a91816104d7565b82525050565b5f602082019050610aaa5f830184610a88565b92915050565b5f610aba82610485565b9150610ac583610485565b9250828201905080821115610add57610adc610895565b5b92915050565b610aec81610485565b82525050565b5f606082019050610b055f830186610a88565b610b126020830185610ae3565b610b1f6040830184610ae3565b949350505050565b5f602082019050610b3a5f830184610ae3565b92915050565b610de280610b4d5f395ff3fe608060405234801561000f575f5ffd5b5060043610610091575f3560e01c8063313ce56711610064578063313ce5671461013157806370a082311461014f57806395d89b411461017f578063a9059cbb1461019d578063dd62ed3e146101cd57610091565b806306fdde0314610095578063095ea7b3146100b357806318160ddd146100e357806323b872dd14610101575b5f5ffd5b61009d6101fd565b6040516100aa9190610a5b565b60405180910390f35b6100cd60048036038101906100c89190610b0c565b61028d565b6040516100da9190610b64565b60405180910390f35b6100eb6102af565b6040516100f89190610b8c565b60405180910390f35b61011b60048036038101906101169190610ba5565b6102b8565b6040516101289190610b64565b60405180910390f35b6101396102e6565b6040516101469190610c10565b60405180910390f35b61016960048036038101906101649190610c29565b6102ee565b6040516101769190610b8c565b60405180910390f35b610187610333565b6040516101949190610a5b565b60405180910390f35b6101b760048036038101906101b29190610b0c565b6103c3565b6040516101c49190610b64565b60405180910390f35b6101e760048036038101906101e29190610c54565b6103e5565b6040516101f49190610b8c565b60405180910390f35b60606003805461020c90610cbf565b80601f016020809104026020016040519081016040528092919081815260200182805461023890610cbf565b80156102835780601f1061025a57610100808354040283529160200191610283565b820191905f5260205f20905b81548152906001019060200180831161026657829003601f168201915b5050505050905090565b5f5f610297610467565b90506102a481858561046e565b600191505092915050565b5f600254905090565b5f5f6102c2610467565b90506102cf858285610480565b6102da858585610513565b60019150509392505050565b5f6012905090565b5f5f5f8373ffffffffffffffffffffffffffffffffffffffff1673ffffffffffffffffffffffffffffffffffffffff1681526020019081526020015f20549050919050565b60606004805461034290610cbf565b80601f016020809104026020016040519081016040528092919081815260200182805461036e90610cbf565b80156103b95780601f10610390576101008083540402835291602001916103b9565b820191905f5260205f20905b81548152906001019060200180831161039c57829003601f168201915b5050505050905090565b5f5f6103cd610467565b90506103da818585610513565b600191505092915050565b5f60015f8473ffffffffffffffffffffffffffffffffffffffff1673ffffffffffffffffffffffffffffffffffffffff1681526020019081526020015f205f8373ffffffffffffffffffffffffffffffffffffffff1673ffffffffffffffffffffffffffffffffffffffff1681526020019081526020015f2054905092915050565b5f33905090565b61047b8383836001610603565b505050565b5f61048b84846103e5565b90507fffffffffffffffffffffffffffffffffffffffffffffffffffffffffffffffff81101561050d57818110156104fe578281836040517ffb8f41b20000000000000000000000000000000000000000000000000000000081526004016104f593929190610cfe565b60405180910390fd5b61050c84848484035f610603565b5b50505050565b5f73ffffffffffffffffffffffffffffffffffffffff168373ffffffffffffffffffffffffffffffffffffffff1603610583575f6040517f96c6fd1e00000000000000000000000000000000000000000000000000000000815260040161057a9190610d33565b60405180910390fd5b5f73ffffffffffffffffffffffffffffffffffffffff168273ffffffffffffffffffffffffffffffffffffffff16036105f3575f6040517fec442f050000000000000000000000000000000000000000000000000000000081526004016105ea9190610d33565b60405180910390fd5b6105fe8383836107d2565b505050565b5f73ffffffffffffffffffffffffffffffffffffffff168473ffffffffffffffffffffffffffffffffffffffff1603610673575f6040517fe602df0500000000000000000000000000000000000000000000000000000000815260040161066a9190610d33565b60405180910390fd5b5f73ffffffffffffffffffffffffffffffffffffffff168373ffffffffffffffffffffffffffffffffffffffff16036106e3575f6040517f94280d620000000000000000000000000000000000000000000000000000000081526004016106da9190610d33565b60405180910390fd5b8160015f8673ffffffffffffffffffffffffffffffffffffffff1673ffffffffffffffffffffffffffffffffffffffff1681526020019081526020015f205f8573ffffffffffffffffffffffffffffffffffffffff1673ffffffffffffffffffffffffffffffffffffffff1681526020019081526020015f208190555080156107cc578273ffffffffffffffffffffffffffffffffffffffff168473ffffffffffffffffffffffffffffffffffffffff167f8c5be1e5ebec7d5bd14f71427d1e84f3dd0314c0f7b2291e5b200ac8c7c3b925846040516107c39190610b8c565b60405180910390a35b50505050565b5f73ffffffffffffffffffffffffffffffffffffffff168373ffffffffffffffffffffffffffffffffffffffff1603610822578060025f8282546108169190610d79565b925050819055506108f0565b5f5f5f8573ffffffffffffffffffffffffffffffffffffffff1673ffffffffffffffffffffffffffffffffffffffff1681526020019081526020015f20549050818110156108ab578381836040517fe450d38c0000000000000000000000000000000000000000000000000000000081526004016108a293929190610cfe565b60405180910390fd5b8181035f5f8673ffffffffffffffffffffffffffffffffffffffff1673ffffffffffffffffffffffffffffffffffffffff1681526020019081526020015f2081905550505b5f73ffffffffffffffffffffffffffffffffffffffff168273ffffffffffffffffffffffffffffffffffffffff1603610937578060025f8282540392505081905550610981565b805f5f8473ffffffffffffffffffffffffffffffffffffffff1673ffffffffffffffffffffffffffffffffffffffff1681526020019081526020015f205f82825401925050819055505b8173ffffffffffffffffffffffffffffffffffffffff168373ffffffffffffffffffffffffffffffffffffffff167fddf252ad1be2c89b69c2b068fc378daa952ba7f163c4a11628f55a4df523b3ef836040516109de9190610b8c565b60405180910390a3505050565b5f81519050919050565b5f82825260208201905092915050565b8281835e5f83830152505050565b5f601f19601f8301169050919050565b5f610a2d826109eb565b610a3781856109f5565b9350610a47818560208601610a05565b610a5081610a13565b840191505092915050565b5f6020820190508181035f830152610a738184610a23565b905092915050565b5f5ffd5b5f73ffffffffffffffffffffffffffffffffffffffff82169050919050565b5f610aa882610a7f565b9050919050565b610ab881610a9e565b8114610ac2575f5ffd5b50565b5f81359050610ad381610aaf565b92915050565b5f819050919050565b610aeb81610ad9565b8114610af5575f5ffd5b50565b5f81359050610b0681610ae2565b92915050565b5f5f60408385031215610b2257610b21610a7b565b5b5f610b2f85828601610ac5565b9250506020610b4085828601610af8565b9150509250929050565b5f8115159050919050565b610b5e81610b4a565b82525050565b5f602082019050610b775f830184610b55565b92915050565b610b8681610ad9565b82525050565b5f602082019050610b9f5f830184610b7d565b92915050565b5f5f5f60608486031215610bbc57610bbb610a7b565b5b5f610bc986828701610ac5565b9350506020610bda86828701610ac5565b9250506040610beb86828701610af8565b9150509250925092565b5f60ff82169050919050565b610c0a81610bf5565b82525050565b5f602082019050610c235f830184610c01565b92915050565b5f60208284031215610c3e57610c3d610a7b565b5b5f610c4b84828501610ac5565b91505092915050565b5f5f60408385031215610c6a57610c69610a7b565b5b5f610c7785828601610ac5565b9250506020610c8885828601610ac5565b9150509250929050565b7f4e487b71000000000000000000000000000000000000000000000000000000005f52602260045260245ffd5b5f6002820490506001821680610cd657607f821691505b602082108103610ce957610ce8610c92565b5b50919050565b610cf881610a9e565b82525050565b5f606082019050610d115f830186610cef565b610d1e6020830185610b7d565b610d2b6040830184610b7d565b949350505050565b5f602082019050610d465f830184610cef565b92915050565b7f4e487b71000000000000000000000000000000000000000000000000000000005f52601160045260245ffd5b5f610d8382610ad9565b9150610d8e83610ad9565b9250828201905080821115610da657610da5610d4c565b5b9291505056fea26469706673582212205fae3c58b363ba4f84be98e8ec55ce261f24dc4dd95a274f90e170e6aab1d9da64736f6c63430008210033a2646970667358221220aeb1ccc3a9d132f6a4d6ac4cc6085da4ccc702855ee65eb421dd525e9e95872164736f6c63430008210033","linkReferences":{}},"methodIdentifiers":{"MATURITY_PRICE()":"c1f1ac31","MATURITY_TARGET()":"21ed6be9","START_PRICE()":"3609ac8f","buyTokens(address,uint256)":"0752881a","coins(address)":"7d0f7a88","createCoin(string,string,uint256)":"2931b63d","dev()":"91cca3db","getPriceAtSupply(uint256)":"d39233e0","hasClaimedDiscount(address,address)":"0b6f88b7","isEarlyAdopter(address,address)":"6e052bd6","listingFee()":"6a1b7ecc","owner()":"8da5cb5b","renounceOwnership()":"715018a6","transferOwnership(address)":"f2fde38b"},"id":24}